:100000000C944E010C9476010C9476010C947601BC
:100010000C9476010C9476010C9476010C94760184
:100020000C9476010C9476010C9476010C94760174
:100030000C9476010C9476010C9476010C94760164
:100040000C94BF040C9476010C9476010C94760108
:100050000C9476010C9476010C9476010C94760144
:100060000C9409050C947601000000000000005F6C
:1000700000000007000700147F147F14242A7F2A41
:10008000122313086462364955225000050300000C
:10009000001C2241000041221C0014083E081408E4
:1000A000083E0808005030000008080808080060F2
:1000B00060000020100804023E5149453E00427F86
:1000C000400042615149462141454B311814127F8D
:1000D0001027454545393C4A494930017109050316
:1000E0003649494936064949291E0036360000007E
:1000F0005636000008142241001414141414004150
:100100002214080201510906324979413E7E11113B
:10011000117E7F494949363E414141227F4141227A
:100120001C7F494949417F090909013E4149497AF2
:100130007F0808087F00417F41002040413F017F48
:10014000081422417F404040407F020C027F7F0420
:1001500008107F3E4141413E7F090909063E415159
:10016000215E7F09192946464949493101017F012C
:10017000013F4040403F1F2040201F3F4038403F4C
:100180006314081463070870080761514945430068
:100190007F41410002040810200041417F00040219
:1001A0000102044040404040000102040020545439
:1001B00054787F48444438384444442038444448C0
:1001C0007F3854545418087E0901020C5252523E92
:1001D0007F0804047800447D40002040443D007FB7
:1001E0001028440000417F40007C041804787C08FB
:1001F00004047838444444387C1414140808141453
:10020000187C7C080404084854545420043F44409B
:10021000203C4040207C1C2040201C3C4030403C86
:1002200044281028440C5050503C4464544C440022
:100230000836410000007F00000041360800080831
:100240002A1C080000000000000000080002010055
:100250000003040700000000000000000000000090
:10026000250028002B0000000000240027002A00A1
:10027000040404040404040402020202020203034C
:100280000303030301020408102040800102040854
:1002900010200102040810202806610811241FBE46
:1002A000CFEFD8E0DEBFCDBF26E0AAE1B1E001C0CC
:1002B0001D92AE30B207E1F711E0A0E0B1E0ECE949
:1002C000F5E102C005900D92AA31B107D9F711E00E
:1002D000CDE4D1E004C02197FE010E94C908CC34CE
:1002E000D107C9F70E94AC060C94C10A0C94000017
:1002F00090E0FC01EC57FD4F249180599D4FFC018B
:100300008491882399F090E0880F991FFC01EA59A5
:10031000FD4FA591B491FC01E45AFD4F8591949154
:100320008FB7F894EC91E22BEC938FBF089590E097
:10033000FC01E85BFD4F2491FC01EC57FD4F34912B
:10034000FC01E059FD4FE491EE23C9F0222339F07E
:10035000233001F1A8F4213019F1223029F1F0E025
:10036000EE0FFF1FE45AFD4FA591B4918FB7F8949B
:10037000EC91611126C030953E233C938FBF0895C8
:100380002730A9F02830C9F0243049F78091800047
:100390008F7D03C0809180008F7780938000DFCFB6
:1003A00084B58F7784BDDBCF84B58F7DFBCF809103
:1003B000B0008F778093B000D2CF8091B0008F7D56
:1003C000F9CF3E2BDACF3FB7F89480918D01909111
:1003D0008E01A0918F01B091900126B5A89B05C018
:1003E0002F3F19F00196A11DB11D3FBFBA2FA92FB4
:1003F000982F8827BC01CD01620F711D811D911DB1
:1004000042E0660F771F881F991F4A95D1F708951C
:100410008F929F92AF92BF92CF92DF92EF92FF9214
:100420000E94E3014B015C018AE0C82ED12CE12C33
:10043000F12C0E94E301681979098A099B09683E39
:10044000734081059105A8F321E0C21AD108E108A3
:10045000F10888EE880E83E0981EA11CB11CC1141F
:10046000D104E104F10429F7FF90EF90DF90CF90E1
:10047000BF90AF909F908F90089508950895209118
:100480005B01260F3327331F21323105ECF4209115
:10049000B701FC0190E080E0243069F082E008952B
:1004A000A0915B012191AC01455C5E4FA40FB52F7B
:1004B000B11D2C930196861798F380915B01680F0C
:1004C00060935B0180E0089581E008951092B70188
:1004D00081E08093B6011092910161E082E10E9477
:1004E000970161E083E10E949701E9EBF0E08081F0
:1004F0008E7F808380818D7F808388E48093B800A5
:1005000085E48093BC000895CF93DF9391E09093AE
:100510003A018823B9F0C091B800D091BA00809117
:10052000BC008A7B8093BC0060E082E10E9497015E
:1005300060E083E10E9497010E946602D093BA00B6
:10054000C093B800DF91CF910895CF92DF92EF92E0
:10055000FF920F931F93CF93DF93D091E00181E03F
:10056000D13208F09CC0C091DF010E94E3016B0111
:100570007C018091B70181116CC082E08093B7014A
:1005800081E08093B6018FEF8093B5011092B401A2
:10059000D093B301AFEBB1E0E3E9F1E080E0D81331
:1005A0008DC01092920180919201CC0FC82BC09304
:1005B000920180919101813009F084C010929101E3
:1005C0000E94E3016B017C01809192018093BB004A
:1005D0008091B9019091BA01A091BB01B091BC0189
:1005E000892B8A2B8B2BA1F00E94E3010091B9018A
:1005F0001091BA012091BB013091BC016C197D09A9
:100600008E099F09061717072807390708F442C003
:100610008091BC0083FDD8CF85EC8093BC000E9404
:10062000E3016B017C018091B701823009F44CC079
:100630008091B5018F3F09F469C08091B501803286
:1006400009F466C08091B501803309F463C084E089
:1006500026C08091B9019091BA01A091BB01B091DF
:10066000BC01892B8A2B8B2B09F483CF0E94E301D9
:100670000091B9011091BA012091BB013091BC01E8
:100680006C197D098E099F09061717072807390776
:1006900008F06FCF8091B8010E94840285E010922B
:1006A000BE011092E0011092BD01DF91CF911F9128
:1006B0000F91FF90EF90DF90CF9008959D919193CF
:1006C0008F5F6DCF85EEA9CF8091B9019091BA016E
:1006D000A091BB01B091BC01892B8A2B8B2B09F413
:1006E000A2CF0E94E3010091B9011091BA012091BB
:1006F000BB013091BC016C197D098E099F09061759
:1007000017072807390708F08ECFC4CF80E0C7CF7E
:1007100082E0C5CF83E0C3CF0895E091830180914B
:100720008201E81730F4F0E0E65EFE4F808190E051
:1007300008958FEF9FEF089590918301809182013A
:100740002FEF3FEF981748F4E92FF0E0E65EFE4FF9
:10075000208130E09F5F90938301C90108958091CB
:10076000820190918301891B990B0895CF92DF92AA
:10077000EF92FF920F931F93CF93DF937C01CB01F6
:100780008A012091BD01222389F0EB016B01C40E87
:10079000D51ECC15DD0569F06991D701ED91FC916D
:1007A0000190F081E02DC7010995F3CF642F0E94DD
:1007B0003F02C801DF91CF911F910F91FF90EF9001
:1007C000DF90CF900895CF93DF931F92CDB7DEB720
:1007D00069832091BD012223F9F02091E0012032AC
:1007E00058F021E030E0FC013383228390E080E088
:1007F0000F90DF91CF9108958091BE01E82FF0E036
:10080000E154FE4F998190838F5F8093BE01809366
:10081000E00181E090E0ECCF61E0CE0101960E9422
:100820003F02F7CFCF93C82F8091EF0191E09093D3
:10083000BD018093DF011092BE011092E00160E0E3
:1008400081EE91E00E94E3036C2F81EE91E00E9423
:10085000E303CF910C94A502CF92DF92EF92FF9227
:100860000F931F93CF93DF930FEF11E0C0EBDD24C5
:10087000D3948C2F0E94120480E00E94120480E125
:100880000E9412047801D0E0F701C1907F018091AD
:10089000EF01D092BD018093DF011092BE01109252
:1008A000E00160E481EE91E00E94E3036C2D81EEB3
:1008B00091E00E94E3030E94A502DF5FD03821F798
:1008C000CF5F00581F4FC83BA1F6DF91CF911F911A
:1008D0000F91FF90EF90DF90CF90089590E080E02F
:1008E000089580910806882319F08EEA0E94120468
:1008F000EFEFF1E080E094E0DF019C011D922150D8
:100900003040E1F70E942C048FEA0C94120485ED2C
:100910008093BC008091B9019091BA01A091BB0174
:10092000B091BC010796A11DB11D23E0B695A79516
:10093000979587952A95D1F72091BC0024FD03C097
:100940001092B70108954091B9015091BA01609198
:10095000BB017091BC01452B462B472B69F30097D7
:10096000A105B10541F02AE22A95F1F700C00197EF
:10097000A109B109E1CF8091B8010C9484021F92C2
:100980000F920FB60F9211242F933F938F939F9343
:10099000AF93BF938091890190918A01A0918B01BF
:1009A000B0918C013091880123E0230F2D3758F549
:1009B0000196A11DB11D2093880180938901909318
:1009C0008A01A0938B01B0938C0180918D0190914D
:1009D0008E01A0918F01B09190010196A11DB11DD2
:1009E00080938D0190938E01A0938F01B09390011D
:1009F000BF91AF919F918F913F912F910F900FBE1B
:100A00000F901F90189526E8230F0296A11DB11D87
:100A1000D2CF1F920F920FB60F9211242F933F93B4
:100A20004F935F936F937F938F939F93AF93BF93F6
:100A3000EF93FF938091B900887F803609F44AC014
:100A4000F0F5883209F4A7C018F5803109F49BC08D
:100A5000B8F4882309F4F9C0883009F494C0FF91F0
:100A6000EF91BF91AF919F918F917F916F915F9126
:100A70004F913F912F910F900FBE0F901F9018959F
:100A8000883109F488C0803251F78093B50114C0D1
:100A9000803409F49DC040F48033B9F38833F9F60B
:100AA0008093B50185ECB0C0803509F485C08835E8
:100AB00009F496C0883499F60E948704D0CF88390B
:100AC00009F48CC038F5883729F050F4883611F0D5
:100AD000803729F683E08093B70110927D0157C0DB
:100AE000883809F47BC0803919F0803809F0B7CF15
:100AF00080917D01803208F071C0E0917D0181E03C
:100B00008E0F80937D018091BB00F0E0E35AFE4F91
:100B100080833DC0803B39F0E0F4803A09F479C02D
:100B2000883A09F09CCF84E08093B70110925C0171
:100B300010925B01E0918001F09181010995809113
:100B40005B0181110FC081E080935B0110923B013A
:100B500009C0803C09F4A6CF883C09F4A3CF883BA8
:100B600009F07DCFE0915C0181E08E0F80935C0104
:100B7000F0E0E55CFE4F80818093BB0090915C01CA
:100B800080915B0129C0809192018093BB0085EC2C
:100B90008093BC0064CF9091B4018091B301981709
:100BA00058F5E091B40181E08E0F8093B401F0E03C
:100BB000ED56FE4F8081E9CFE091B40181E08E0FC8
:100BC0008093B4018091BB00F0E0ED56FE4F80832E
:100BD0009091B4018091B3019817C8F285E8D8CFFD
:100BE000E091B40181E08E0F8093B4018091BB004D
:100BF000F0E0ED56FE4F80838091B60181115CCF0D
:100C000081E08093910184EA8093BC001092B70147
:100C100026CF85EC8093BC001092B70180917D01B6
:100C2000803230F4E0917D01F0E0E35AFE4F108213
:100C300060917D0170E0E0917E01F0917F018DE592
:100C400091E0099510927D010ACF1092B50134CF41
:100C50001092E4011092E30188EE93E0A0E0B0E08E
:100C60008093E5019093E601A093E701B093E8013A
:100C70008AE091E09093E2018093E1011092ED010E
:100C80001092EE011092EF011092F0011092F1011A
:100C900085E08093F20182E08093F3011092F401E9
:100CA0001092F5011092F7011092F6011092F901DD
:100CB0001092F8011092FB011092FA0161E070E0CD
:100CC00090E080E00E94F4090097E9F09093F7012A
:100CD0008093F6011092F9011092F8012091FA0127
:100CE0003091FB01232B11F4FC0110821092FB01C7
:100CF0001092FA0168E171E08091F6019091F7019C
:100D00000E94BA0A14C08091F6019091F7010097F1
:100D100011F00E946B091092F7011092F6011092E7
:100D2000FB011092FA011092F9011092F801109251
:100D3000030610920406109207061092080681E03E
:100D40008093090680E88093EE0180E48093ED01B2
:100D50008CE38093EF010895CF93DF93CDB7DEB797
:100D60006C970FB6F894DEBF0FBECDBF789484B5F4
:100D7000826084BD84B5816084BD85B5826085BD97
:100D800085B5816085BD80916E00816080936E0025
:100D90001092810080918100826080938100809117
:100DA00081008160809381008091800081608093C8
:100DB00080008091B10084608093B1008091B00088
:100DC00081608093B00080917A00846080937A0083
:100DD00080917A00826080937A0080917A008160AD
:100DE00080937A0080917A00806880937A001092D4
:100DF000C10088E00E94780189E00E9478018AE0C1
:100E00000E94780183E00E94780161E089E00E94FD
:100E1000970161E08AE00E94970161E083E00E940F
:100E2000970187E00E94780160E087E00E949701C7
:100E300086E00E94780161E086E00E9497010E94AE
:100E4000080260E086E00E9497010E94080261E0CB
:100E500086E00E9497010E9408021092830110927E
:100E600082011092BE011092E0010E9466028DE3A1
:100E700092E090938101809380018EE392E09093C1
:100E80007F0180937E018CE08093B800FE0137964D
:100E900087E0DF011D928A95E9F78EEA898385ED67
:100EA0008A8380E88B8388EA8C8383ED8E8380E459
:100EB00088878DE8898784E28A8780E28B8791EA38
:100EC0009D8798EC9E879AED9F8792E1988B91E899
:100ED000998B9FEF9A8B99ED9B8B92E29C8B9BED6C
:100EE0009D8B8E8B84EA8F8B86EA888F8FEA898F21
:100EF0008091ED0181508D838E010F5F1F4F7E0128
:100F0000BAE1EB0EF11CF80181918F010E941204ED
:100F10000E151F05C1F781E08093070688E690E073
:100F2000909306068093050685E08093F2010E9467
:100F3000710483E08093F30185ED0E94120480E840
:100F40000E9412048DE80E94120484E20E9412049E
:100F500089ED0E94120481EF0E9412048BED0E9421
:100F6000120480E30E9412048CE08093B800EFEF3B
:100F7000F1E080E094E0DF019C011D9221503040BF
:100F8000E1F70E947104212C94E0392E442443940B
:100F9000512C34E0632E712C40E0842E40E0942EDE
:100FA000AFEFB1E0F1011D923197E9F710E000E0F9
:100FB000F1E4F0937C0080917A00806480937A0061
:100FC00080917A0086FDFCCFA0907800B0907900E7
:100FD00084E0B594A7948A95E1F70A8FC02EC69451
:100FE000C694C69420E8C29E60011124802F8770A9
:100FF000D20102C0AA0FBB1F8A95E2F7AB8FA09562
:10100000AC8FF12CE12C8091860190918701800FAB
:10101000911F8E259F25B5010E94A108B3010E9452
:10102000A1089093850180938401892B59F561E093
:1010300088E00E94970160E089E00E94970180911A
:10104000EE018E1540F58FEFE81AF80A90E8E916E0
:10105000F104C9F60F5F1F4F0034110509F0A8CF46
:101060000E942C04809186019091870101969093B3
:101070008701809386018114910409F491CF0E9425
:1010800000008ECF60E088E00E94970161E089E077
:101090000E949701D8CF8091ED01BA8D8B1798F2FD
:1010A000F701EC0DFD1DE351FE4F82899091090679
:1010B000992321F02B8D822B828BC5CF3C8D8323EE
:1010C000FBCF8091F6019091F701009711F00C94FD
:1010D0006B0908952F923F924F925F926F927F9289
:1010E0008F929F92AF92BF92CF92DF92EF92FF9238
:1010F0000F931F93CF93DF93CDB7DEB7CA1BDB0BE4
:101100000FB6F894DEBF0FBECDBF09942A88398888
:1011100048885F846E847D848C849B84AA84B9848F
:10112000C884DF80EE80FD800C811B81AA81B9819B
:10113000CE0FD11D0FB6F894DEBF0FBECDBFED01AF
:10114000089597FB072E16F4009407D077FD09D079
:101150000E94B50807FC05D03EF4909581959F4FFD
:101160000895709561957F4F0895AA1BBB1B51E1AF
:1011700007C0AA1FBB1FA617B70710F0A61BB70B07
:10118000881F991F5A95A9F780959095BC01CD01AC
:101190000895EE0FFF1F0590F491E02D09940F9331
:1011A0001F93CF93DF938230910510F482E090E09B
:1011B000E0910C06F0910D0630E020E0B0E0A0E0F8
:1011C000309799F42115310509F44AC0281B390BD1
:1011D00024303105D8F58A819B816115710589F12B
:1011E000FB0193838283FE0111C040815181028102
:1011F000138148175907E0F04817590799F41097D9
:1012000061F012960C93129713961C933296CF01AD
:10121000DF91CF911F910F91089500930C061093C9
:101220000D06F4CF2115310551F04217530738F060
:10123000A901DB019A01BD01DF01F801C1CFEF0176
:10124000F9CF90930D0680930C06CDCFFE01E20FEF
:10125000F31F819391932250310939832883D7CF8B
:1012600020910A0630910B06232B41F420910201B4
:101270003091030130930B0620930A062091000160
:10128000309101012115310541F42DB73EB7409150
:10129000040150910501241B350BE0910A06F091E1
:1012A0000B06E217F307A0F42E1B3F0B2817390794
:1012B00078F0AC014E5F5F4F2417350748F04E0FB2
:1012C0005F1F50930B0640930A06819391939FCF23
:1012D000F0E0E0E09CCFCF93DF930097E9F0FC01D2
:1012E000329713821282A0910C06B0910D06ED0187
:1012F00030E020E01097A1F420813181820F931F0C
:1013000020910A0630910B062817390709F061C0B1
:10131000F0930B06E0930A06DF91CF910895EA015E
:10132000CE17DF07E8F54A815B819E014115510523
:10133000B1F7E901FB83EA8349915991C40FD51FA5
:10134000EC17FD0761F4808191810296840F951F4F
:10135000E90199838883828193819B838A83F0E06A
:10136000E0E012968D919C9113970097B9F52D911D
:101370003C911197CD010296820F931F20910A068E
:1013800030910B062817390739F6309751F510922E
:101390000D0610920C06B0930B06A0930A06BCCF64
:1013A000D383C28340815181840F951FC817D90709
:1013B00061F44E5F5F4F88819981480F591F5183B7
:1013C00040838A819B81938382832115310509F0B3
:1013D000B0CFF0930D06E0930C069ECFFD01DC012B
:1013E000C0CF13821282D7CFB0E0A0E0EAEFF9E0DD
:1013F0000C946C088C01009751F4CB010E94CF082B
:101400008C01C801CDB7DEB7E0E10C948808FC017F
:10141000E60FF71F9C0122503109E217F30708F489
:101420009DC0D901CD91DC911197C617D70798F0CF
:10143000C530D10530F3CE0104978617970708F31E
:10144000C61BD70B2297C193D1936D937C93CF0189
:101450000E946B09D6CF5B01AC1ABD0A4C018C0E01
:101460009D1EA0910C06B0910D06512C412CF12C23
:10147000E12C109731F580910A0690910B068815A2
:10148000990509F05CC04616570608F058C08091CF
:10149000000190910101009741F48DB79EB74091F2
:1014A000040150910501841B950BE817F90708F01A
:1014B00055C0F0930B06E0930A06F901718360832F
:1014C000A0CF8D919C91119712966C9012971396C4
:1014D0007C901397A815B90559F56C0142E0C40E2C
:1014E000D11CCA14DB0420F1AC014A195B09DA01F2
:1014F0001296159780F06282738251834083D901DE
:101500006D937C93E114F10471F0D7011396FC9371
:10151000EE93129776CF22968C0F9D1FF90191833F
:101520008083F301EFCFF0930D06E0930C0669CFB3
:101530004816590608F42C017D01D3019ACFCB013E
:101540000E94CF087C01009749F0AE01B8010E94CB
:10155000B10AC8010E946B09870153CF10E000E077
:1015600050CFFB01DC0102C001900D924150504070
:10157000D8F70895FB01DC0101900D920020E1F7FE
:10158000089511E0CDE4D1E004C0FE010E94C90835
:0C1590002196CE34D107C9F7F894FFCFA4
:10159C0000000E06800000000000E303B6036E049A
:0A15AC008C03AF039C038D030000C5
:00000001FF
