:020000040000FA
:100000000C944E010C9476010C9476010C947601BC
:100010000C9476010C9476010C9476010C94760184
:100020000C9476010C9476010C9476010C94760174
:100030000C9476010C9476010C9476010C94760164
:100040000C94BF040C9476010C9476010C94760108
:100050000C9476010C9476010C9476010C94760144
:100060000C9409050C947601000000000000005F6C
:1000700000000007000700147F147F14242A7F2A41
:10008000122313086462364955225000050300000C
:10009000001C2241000041221C0014083E081408E4
:1000A000083E0808005030000008080808080060F2
:1000B00060000020100804023E5149453E00427F86
:1000C000400042615149462141454B311814127F8D
:1000D0001027454545393C4A494930017109050316
:1000E0003649494936064949291E0036360000007E
:1000F0005636000008142241001414141414004150
:100100002214080201510906324979413E7E11113B
:10011000117E7F494949363E414141227F4141227A
:100120001C7F494949417F090909013E4149497AF2
:100130007F0808087F00417F41002040413F017F48
:10014000081422417F404040407F020C027F7F0420
:1001500008107F3E4141413E7F090909063E415159
:10016000215E7F09192946464949493101017F012C
:10017000013F4040403F1F2040201F3F4038403F4C
:100180006314081463070870080761514945430068
:100190007F41410002040810200041417F00040219
:1001A0000102044040404040000102040020545439
:1001B00054787F48444438384444442038444448C0
:1001C0007F3854545418087E0901020C5252523E92
:1001D0007F0804047800447D40002040443D007FB7
:1001E0001028440000417F40007C041804787C08FB
:1001F00004047838444444387C1414140808141453
:10020000187C7C080404084854545420043F44409B
:10021000203C4040207C1C2040201C3C4030403C86
:1002200044281028440C5050503C4464544C440022
:100230000836410000007F00000041360800080831
:100240002A1C080000000000000000080002010055
:100250000003040700000000000000000000000090
:10026000250028002B0000000000240027002A00A1
:10027000040404040404040402020202020203034C
:100280000303030301020408102040800102040854
:1002900010200102040810202806FF0811241FBEA8
:1002A000CFEFD8E0DEBFCDBF11E0A0E0B1E0E2E8E3
:1002B000FAE102C005900D92AA32B107D9F726E003
:1002C000AAE2B1E001C01D92AA31B207E1F711E044
:1002D000CDE4D1E004C02197FE010E943C0BCC3458
:1002E000D107C9F70E94AC060C94340D0C940000A1
:1002F00090E0FC01EC57FD4F249180599D4FFC018B
:100300008491882399F090E0880F991FFC01EA59A5
:10031000FD4FA591B491FC01E45AFD4F8591949154
:100320008FB7F894EC91E22BEC938FBF089590E097
:10033000FC01E85BFD4F2491FC01EC57FD4F34912B
:10034000FC01E059FD4FE491EE23C9F0222339F07E
:10035000233001F1A8F4213019F1223029F1F0E025
:10036000EE0FFF1FE45AFD4FA591B4918FB7F8949B
:10037000EC91611126C030953E233C938FBF0895C8
:100380002730A9F02830C9F0243049F78091800047
:100390008F7D03C0809180008F7780938000DFCFB6
:1003A00084B58F7784BDDBCF84B58F7DFBCF809103
:1003B000B0008F778093B000D2CF8091B0008F7D56
:1003C000F9CF3E2BDACF3FB7F89480919901909105
:1003D0009A01A0919B01B0919C0126B5A89B05C0F4
:1003E0002F3F19F00196A11DB11D3FBFBA2FA92FB4
:1003F000982F8827BC01CD01620F711D811D911DB1
:1004000042E0660F771F881F991F4A95D1F708951C
:100410008F929F92AF92BF92CF92DF92EF92FF9214
:100420000E94E3014B015C018AE0C82ED12CE12C33
:10043000F12C0E94E301681979098A099B09683E39
:10044000734081059105A8F321E0C21AD108E108A3
:10045000F10888EE880E83E0981EA11CB11CC1141F
:10046000D104E104F10429F7FF90EF90DF90CF90E1
:10047000BF90AF909F908F90089508950895209118
:100480006B01260F3327331F21323105ECF4209105
:10049000C301FC0190E080E0243069F082E008951F
:1004A000A0916B012191AC01455B5E4FA40FB52F6C
:1004B000B11D2C930196861798F380916B01680FFC
:1004C00060936B0180E0089581E008951092C3016C
:1004D00081E08093C20110929D0161E082E10E945F
:1004E000970161E083E10E949701E9EBF0E08081F0
:1004F0008E7F808380818D7F808388E48093B800A5
:1005000085E48093BC000895CF93DF9391E09093AE
:100510004A018823B9F0C091B800D091BA00809107
:10052000BC008A7B8093BC0060E082E10E9497015E
:1005300060E083E10E9497010E946602D093BA00B6
:10054000C093B800DF91CF910895CF92DF92EF92E0
:10055000FF920F931F93CF93DF93D091EC0181E033
:10056000D13208F09CC0C091EB010E94E3016B0105
:100570007C018091C30181116CC082E08093C30132
:1005800081E08093C2018FEF8093C1011092C0017E
:10059000D093BF01ABECB1E0EFE9F1E080E0D8131C
:1005A0008DC010929E0180919E01CC0FC82BC093EC
:1005B0009E0180919D01813009F084C010929D01BF
:1005C0000E94E3016B017C0180919E018093BB003E
:1005D0008091C5019091C601A091C701B091C80159
:1005E000892B8A2B8B2BA1F00E94E3010091C5017E
:1005F0001091C6012091C7013091C8016C197D0985
:100600008E099F09061717072807390708F442C003
:100610008091BC0083FDD8CF85EC8093BC000E9404
:10062000E3016B017C018091C301823009F44CC06D
:100630008091C1018F3F09F469C08091C10180326E
:1006400009F466C08091C101803309F463C084E07D
:1006500026C08091C5019091C601A091C701B091BB
:10066000C801892B8A2B8B2B09F483CF0E94E301CD
:100670000091C5011091C6012091C7013091C801B8
:100680006C197D098E099F09061717072807390776
:1006900008F06FCF8091C4010E94840285E010921F
:1006A000CA011092EC011092C901DF91CF911F9104
:1006B0000F91FF90EF90DF90CF9008959D919193CF
:1006C0008F5F6DCF85EEA9CF8091C5019091C60156
:1006D000A091C701B091C801892B8A2B8B2B09F4FB
:1006E000A2CF0E94E3010091C5011091C6012091A3
:1006F000C7013091C8016C197D098E099F09061741
:1007000017072807390708F08ECFC4CF80E0C7CF7E
:1007100082E0C5CF83E0C3CF0895E091930180913B
:100720009201E81730F4F0E0E65DFE4F808190E042
:1007300008958FEF9FEF089590919301809192011A
:100740002FEF3FEF981748F4E92FF0E0E65DFE4FFA
:10075000208130E09F5F90939301C90108958091BB
:10076000920190919301891B990B0895CF92DF928A
:10077000EF92FF920F931F93CF93DF937C01CB01F6
:100780008A012091C901222389F0EB016B01C40E7B
:10079000D51ECC15DD0569F06991D701ED91FC916D
:1007A0000190F081E02DC7010995F3CF642F0E94DD
:1007B0003F02C801DF91CF911F910F91FF90EF9001
:1007C000DF90CF900895CF93DF931F92CDB7DEB720
:1007D00069832091C9012223F9F02091EC01203294
:1007E00058F021E030E0FC013383228390E080E088
:1007F0000F90DF91CF9108958091CA01E82FF0E02A
:10080000E553FE4F998190838F5F8093CA01809357
:10081000EC0181E090E0ECCF61E0CE0101960E9416
:100820003F02F7CFCF93C82F8091FB0191E09093C7
:10083000C9018093EB011092CA011092EC0160E0B3
:100840008DEE91E00E94E3036C2F8DEE91E00E940B
:10085000E303CF910C94A502CF92DF92EF92FF9227
:100860000F931F93CF93DF930BE012E0C0EBDD24D7
:10087000D3948C2F0E94120480E00E94120480E125
:100880000E9412047801D0E0F701C1907F018091AD
:10089000FB01D092C9018093EB011092CA01109222
:1008A000EC0160E48DEE91E00E94E3036C2D8DEE8F
:1008B00091E00E94E3030E94A502DF5FD03821F798
:1008C000CF5F00581F4FC83BA1F6DF91CF911F911A
:1008D0000F91FF90EF90DF90CF90089590E080E02F
:1008E000089580911406882319F08EEA0E9412045C
:1008F000EBE0F2E080E094E0DF019C011D922150EA
:100900003040E1F70E942C048FEA0C94120485ED2C
:100910008093BC008091C5019091C601A091C70150
:10092000B091C8010796A11DB11D23E0B695A7950A
:10093000979587952A95D1F72091BC0024FD03C097
:100940001092C30108954091C5015091C601609174
:10095000C7017091C801452B462B472B69F30097BF
:10096000A105B10541F02AE22A95F1F700C00197EF
:10097000A109B109E1CF8091C4010C9484021F92B6
:100980000F920FB60F9211242F933F938F939F9343
:10099000AF93BF938091950190919601A09197019B
:1009A000B09198013091940123E0230F2D3758F531
:1009B0000196A11DB11D2093940180939501909300
:1009C0009601A0939701B09398018091990190911D
:1009D0009A01A0919B01B0919C010196A11DB11DAE
:1009E0008093990190939A01A0939B01B0939C01ED
:1009F000BF91AF919F918F913F912F910F900FBE1B
:100A00000F901F90189526E8230F0296A11DB11D87
:100A1000D2CF1F920F920FB60F9211242F933F93B4
:100A20004F935F936F937F938F939F93AF93BF93F6
:100A3000EF93FF938091B900887F803609F44AC014
:100A4000F0F5883209F4A7C018F5803109F49BC08D
:100A5000B8F4882309F4F9C0883009F494C0FF91F0
:100A6000EF91BF91AF919F918F917F916F915F9126
:100A70004F913F912F910F900FBE0F901F9018959F
:100A8000883109F488C0803251F78093C10114C0C5
:100A9000803409F49DC040F48033B9F38833F9F60B
:100AA0008093C10185ECB0C0803509F485C08835DC
:100AB00009F496C0883499F60E948704D0CF88390B
:100AC00009F48CC038F5883729F050F4883611F0D5
:100AD000803729F683E08093C30110928D0157C0BF
:100AE000883809F47BC0803919F0803809F0B7CF15
:100AF00080918D01803208F071C0E0918D0181E01C
:100B00008E0F80938D018091BB00F0E0E359FE4F82
:100B100080833DC0803B39F0E0F4803A09F479C02D
:100B2000883A09F09CCF84E08093C30110926C0155
:100B300010926B01E0919001F091910109958091E3
:100B40006B0181110FC081E080936B0110924B010A
:100B500009C0803C09F4A6CF883C09F4A3CF883BA8
:100B600009F07DCFE0916C0181E08E0F80936C01E4
:100B7000F0E0E55BFE4F80818093BB0090916C01BB
:100B800080916B0129C080919E018093BB0085EC10
:100B90008093BC0064CF9091C0018091BF019817F1
:100BA00058F5E091C00181E08E0F8093C001F0E024
:100BB000E156FE4F8081E9CFE091C00181E08E0FC8
:100BC0008093C0018091BB00F0E0E156FE4F80832E
:100BD0009091C0018091BF019817C8F285E8D8CFE5
:100BE000E091C00181E08E0F8093C0018091BB0035
:100BF000F0E0E156FE4F80838091C20181115CCF0D
:100C000081E080939D0184EA8093BC001092C3012F
:100C100026CF85EC8093BC001092C30180918D019A
:100C2000803230F4E0918D01F0E0E359FE4F108204
:100C300060918D0170E0E0918E01F0918F018DE661
:100C400091E0099510928D010ACF1092C10134CF25
:100C50001092F0011092EF0188EE93E0A0E0B0E076
:100C60008093F1019093F201A093F301B093F4010A
:100C70008AE191E09093EE018093ED011092F901E9
:100C80001092FA011092FB011092FC011092FD01EA
:100C900085E08093FE0182E08093FF0110920002C4
:100CA00010920102109203021092020210920502A9
:100CB00010920402109207021092060261E070E0A6
:100CC00090E080E00E94670C0097E9F090930302A7
:100CD00080930202109205021092040220910602F3
:100CE00030910702232B11F4FC01108210920702AD
:100CF0001092060268E271E0809102029091030274
:100D00000E942D0D14C08091020290910302009761
:100D100011F00E94DE0B1092030210920202109258
:100D2000070210920602109205021092040210921D
:100D30000F0610921006109213061092140681E00E
:100D40008093150680E88093FA0180E48093F9018E
:100D50008CE38093FB010895CF93DF93CDB7DEB78B
:100D6000A1970FB6F894DEBF0FBECDBF789484B5BF
:100D7000826084BD84B5816084BD85B5826085BD97
:100D800085B5816085BD80916E00816080936E0025
:100D90001092810080918100826080938100809117
:100DA00081008160809381008091800081608093C8
:100DB00080008091B10084608093B1008091B00088
:100DC00081608093B00080917A00846080937A0083
:100DD00080917A00826080937A0080917A008160AD
:100DE00080937A0080917A00806880937A001092D4
:100DF000C10088E00E94780189E00E9478018AE0C1
:100E00000E94780183E00E94780161E089E00E94FD
:100E1000970161E08AE00E94970161E083E00E940F
:100E2000970187E00E94780160E087E00E949701C7
:100E300086E00E94780161E086E00E9497010E94AE
:100E4000080260E086E00E9497010E94080261E0CB
:100E500086E00E9497010E9408021092930110926E
:100E600092011092CA011092EC010E9466028DE379
:100E700092E090939101809390018EE392E09093A1
:100E80008F0180938E018CE08093B800FE0137962D
:100E900087E0DF011D928A95E9F78EEA898385ED67
:100EA0008A8380E88B8388EA8C8383ED8E8380E459
:100EB00088878DE8898784E28A8780E28B8791EA38
:100EC0009D8798EC9E879AED9F8792E1988B91E899
:100ED000998B9FEF9A8B99ED9B8B92E29C8B9BED6C
:100EE0009D8B8E8B84EA8F8B86EA888F8FEA898F21
:100EF0008091F90181508D838E010F5F1F4F7E011C
:100F0000BAE1EB0EF11CF80181918F010E941204ED
:100F1000E016F106C1F781E08093130688E690E0C1
:100F2000909312068093110685E08093FE010E9443
:100F3000710483E08093FF0185ED0E94120480E834
:100F40000E9412048DE80E94120484E20E9412049E
:100F500089ED0E94120481EF0E9412048BED0E9421
:100F6000120480E30E9412048CE08093B800EBE04E
:100F7000F2E080E094E0DF019C011D9221503040BE
:100F8000E1F70E94710480E0282E80E0382E31E4E1
:100F900030937C0080917A00806480937A00809105
:100FA0007A0086FDFCCF2091780030917900A8E18D
:100FB000BCEF0E942D0B2FEF33E040E050E00E9489
:100FC000030ACA01B90168517C4F8F4F9F4F072E0A
:100FD000000C880B990B0E940A0921E338E04CE2CF
:100FE0005DE30E94450920E030E040E251E40E94C8
:100FF0008B0A6A8F7B8F8C8F9D8F60930C0170930F
:101000000D0180930E0190930F01ABE0B2E0E0E0A0
:10101000F4E01D923197E9F708EE13E0C090080163
:10102000D0900901E0900A01F0900B01809004013A
:1010300090900501A0900601B0900701409000013A
:10104000509001016090020170900301A701960188
:10105000C501B4010E948A0A2A8D3B8D4C8D5D8D9D
:101060000E9445092AE037ED43E25CE30E9445090E
:10107000A70196010E948B0A6E8F7F8F88A399A388
:10108000609308017093090180930A0190930B010A
:10109000A301920160E070E080EE91E40E948A0A70
:1010A000A70196010E944509A50194010E948A0AA0
:1010B0002AE037ED43E25CE30E944509A501940173
:1010C0000E948B0A609304017093050180930601CE
:1010D00090930701A5019401C701B6010E9445093B
:1010E0006B017C012BEA3AEA4AE250E4C301B20107
:1010F0000E9445099B01AC01C701B6010E948A0A02
:101100002AE037ED43E25CE30E944509A301920126
:101110000E948B0A4B015C018092000190920101B8
:10112000A0920201B092030120E030E040E450E4DC
:101130006E8D7F8D88A199A10E94450920E030E045
:1011400040E852E40E948B0A0E94F70A2B017B01BF
:101150006034710509F04AC061E088E00E9497019F
:1011600060E089E00E9497018091FA018E1588F174
:1011700020E030E040E051E4C501B4010E948B0A58
:101180009B01AC0160E070E080E892E40E948A0A72
:101190000E94F70A8091F9018617D8F0E62FE695AC
:1011A000E695E69520E8E29FF00111245524E40D30
:1011B000F51DE750FE4F2289677081E090E001C085
:1011C000880F6A95EAF7309115063323A9F0822B30
:1011D000828B0150110909F021CF0E942C042114A7
:1011E000310409F4D4CE0E940000D1CE60E088E042
:1011F0000E94970161E0B5CF80958223E9CF80916D
:10120000020290910302009711F00C94DE0B0895F6
:10121000E89409C097FB3EF4909580957095619590
:101220007F4F8F4F9F4F9923A9F0F92F96E9BB2746
:101230009395F695879577956795B795F111F8CFC2
:10124000FAF4BB0F11F460FF1BC06F5F7F4F8F4F2D
:101250009F4F16C0882311F096E911C0772321F023
:101260009EE8872F762F05C0662371F096E8862FBB
:1012700070E060E02AF09A95660F771F881FDAF712
:10128000880F9695879597F908950E9458090C94B0
:10129000C9090E94BB0938F00E94C20920F09523B9
:1012A00011F00C94B2090C94B80911240C94FD09A6
:1012B0000E94DA0970F3959FC1F3950F50E0551F16
:1012C000629FF001729FBB27F00DB11D639FAA279B
:1012D000F00DB11DAA1F649F6627B00DA11D661FEA
:1012E000829F2227B00DA11D621F739FB00DA11D0B
:1012F000621F839FA00D611D221F749F3327A00DC5
:10130000611D231F849F600D211D822F762F6A2F60
:1013100011249F5750409AF0F1F088234AF0EE0FC5
:10132000FF1FBB1F661F771F881F91505040A9F7F2
:101330009E3F510580F00C94B2090C94FD095F3F6B
:10134000E4F3983ED4F3869577956795B795F7952E
:10135000E7959F5FC1F7FE2B880F911D96958795A6
:1013600097F9089597F99F6780E870E060E0089525
:101370009FEF80EC089500240A94161617061806AD
:101380000906089500240A94121613061406050689
:101390000895092E0394000C11F4882352F0BB0F1A
:1013A00040F4BF2B11F460FF04C06F5F7F4F8F4F7D
:1013B0009F4F089557FD9058440F551F59F05F3FB8
:1013C00071F04795880F97FB991F61F09F3F79F067
:1013D00087950895121613061406551FF2CF4695E9
:1013E000F1DF08C0161617061806991FF1CF86956B
:1013F0007105610508940895E894BB27662777274F
:10140000CB0197F90895052E97FB1EF400940E94D6
:101410001A0A57FD07D00E94590A07FC03D04EF460
:101420000C941A0A50954095309521953F4F4F4F97
:101430005F4F089590958095709561957F4F8F4F80
:101440009F4F08952F923F924F925F926F927F929B
:101450008F929F92AF92BF92CF92DF92EF92FF92C4
:101460000F931F93CF93DF93CDB7DEB7CA1BDB0B70
:101470000FB6F894DEBF0FBECDBF09942A88398815
:1014800048885F846E847D848C849B84AA84B9841C
:10149000C884DF80EE80FD800C811B81AA81B98128
:1014A000CE0FD11D0FB6F894DEBF0FBECDBFED013C
:1014B0000895A1E21A2EAA1BBB1BFD010DC0AA1F95
:1014C000BB1FEE1FFF1FA217B307E407F50720F0AD
:1014D000A21BB30BE40BF50B661F771F881F991F28
:1014E0001A9469F760957095809590959B01AC0171
:1014F000BD01CF010895A29FB001B39FC001A39F7A
:10150000700D811D1124911DB29F700D811D11243C
:10151000911D08955058BB27AA270E94A20A0C9437
:10152000C9090E94BB0938F00E94C20920F039F4B1
:101530009F3F19F426F40C94B8090EF4E095E7FBEC
:101540000C94B209E92F0E94DA0958F3BA1762071E
:1015500073078407950720F079F4A6F50C94FC092D
:101560000EF4E0950B2EBA2FA02D0B01B9019001BE
:101570000C01CA01A0011124FF27591B99F0593F02
:1015800050F4503E68F11A16F040A22F232F342F4A
:101590004427585FF3CF469537952795A795F04098
:1015A0005395C9F77EF41F16BA0B620B730B840BAD
:1015B000BAF09150A1F0FF0FBB1F661F771F881F65
:1015C000C2F70EC0BA0F621F731F841F48F48795BD
:1015D00077956795B795F7959E3F08F0B0CF9395AF
:1015E000880F08F09927EE0F9795879508950E9428
:1015F000FE0A6894B1110C94FD0908950E94E20955
:1016000088F09F5798F0B92F9927B751B0F0E1F0C3
:10161000660F771F881F991F1AF0BA95C9F714C073
:10162000B13091F00E94FC09B1E008950C94FC09DE
:10163000672F782F8827B85F39F0B93FCCF38695AC
:1016400077956795B395D9F73EF490958095709509
:1016500061957F4F8F4F9F4F08950E947B0A3323E0
:1016600012F48A1B9B0B0C94370B0E947B0AB7FF6A
:101670000895821B930B0895EE0FFF1F0590F491C0
:10168000E02D09940F931F93CF93DF938230910540
:1016900010F482E090E0E0911806F091190630E035
:1016A00020E0B0E0A0E0309799F42115310509F46D
:1016B0004AC0281B390B24303105D8F58A819B811B
:1016C0006115710589F1FB0193838283FE0111C0CD
:1016D000408151810281138148175907E0F0481772
:1016E000590799F4109761F012960C93129713967C
:1016F0001C933296CF01DF91CF911F910F910895E6
:101700000093180610931906F4CF2115310551F0F6
:101710004217530738F0A901DB019A01BD01DF012F
:10172000F801C1CFEF01F9CF909319068093180605
:10173000CDCFFE01E20FF31F819391932250310927
:1017400039832883D7CF2091160630911706232B93
:1017500041F4209112013091130130931706209328
:10176000160620911001309111012115310541F427
:101770002DB73EB74091140150911501241B350B34
:10178000E0911606F0911706E217F307A0F42E1B5E
:101790003F0B2817390778F0AC014E5F5F4F2417D5
:1017A000350748F04E0F5F1F5093170640931606FB
:1017B000819391939FCFF0E0E0E09CCFCF93DF93B4
:1017C0000097E9F0FC01329713821282A09118066B
:1017D000B0911906ED0130E020E01097A1F42081CE
:1017E0003181820F931F209116063091170628171A
:1017F000390709F061C0F0931706E0931606DF91F0
:10180000CF910895EA01CE17DF07E8F54A815B81A1
:101810009E0141155105B1F7E901FB83EA83499126
:101820005991C40FD51FEC17FD0761F48081918198
:101830000296840F951FE9019983888382819381A1
:101840009B838A83F0E0E0E012968D919C91139740
:101850000097B9F52D913C911197CD010296820F19
:10186000931F20911606309117062817390739F66D
:10187000309751F51092190610921806B09317067A
:10188000A0931606BCCFD383C28340815181840FBD
:10189000951FC817D90761F44E5F5F4F8881998102
:1018A000480F591F518340838A819B819383828390
:1018B0002115310509F0B0CFF0931906E093180611
:1018C0009ECFFD01DC01C0CF13821282D7CFB0E0E2
:1018D000A0E0EDE6FCE00C94240A8C01009751F4A2
:1018E000CB010E94420B8C01C801CDB7DEB7E0E10D
:1018F0000C94400AFC01E60FF71F9C0122503109AD
:10190000E217F30708F49DC0D901CD91DC9111973E
:10191000C617D70798F0C530D10530F3CE0104972C
:101920008617970708F3C61BD70B2297C193D1934D
:101930006D937C93CF010E94DE0BD6CF5B01AC1A76
:10194000BD0A4C018C0E9D1EA0911806B09119067F
:10195000512C412CF12CE12C109731F58091160679
:10196000909117068815990509F05CC04616570630
:1019700008F058C08091100190911101009741F436
:101980008DB79EB74091140150911501841B950BA2
:10199000E817F90708F055C0F0931706E09316060C
:1019A000F90171836083A0CF8D919C91119712965C
:1019B0006C90129713967C901397A815B90559F55A
:1019C0006C0142E0C40ED11CCA14DB0420F1AC014E
:1019D0004A195B09DA011296159780F062827382C8
:1019E00051834083D9016D937C93E114F10471F02C
:1019F000D7011396FC93EE93129776CF22968C0F15
:101A00009D1FF90191838083F301EFCFF0931906B5
:101A1000E093180669CF4816590608F42C017D0199
:101A2000D3019ACFCB010E94420B7C01009749F071
:101A3000AE01B8010E94240DC8010E94DE0B87018F
:101A400053CF10E000E050CFFB01DC0102C0019059
:101A50000D9241505040D8F70895FB01DC010190F0
:101A60000D920020E1F7089511E0CDE4D1E004C02B
:101A7000FE010E943C0B2196CE34D107C9F7F894A1
:101A8000FFCF0000803F0000803F0000803F00004B
:101A9000204100001A06800000000000E303B603A6
:0C1AA0006E048C03AF039C038D03000058
:107E0000112484B714BE81FFF0D085E080938100F7
:107E100082E08093C00088E18093C10086E0809377
:107E2000C20080E18093C4008EE0C9D0259A86E02C
:107E300020E33CEF91E0309385002093840096BBD3
:107E4000B09BFECF1D9AA8958150A9F7CC24DD24C4
:107E500088248394B5E0AB2EA1E19A2EF3E0BF2EE7
:107E6000A2D0813461F49FD0082FAFD0023811F036
:107E7000013811F484E001C083E08DD089C08234E0
:107E800011F484E103C0853419F485E0A6D080C0E4
:107E9000853579F488D0E82EFF2485D0082F10E0AE
:107EA000102F00270E291F29000F111F8ED06801E7
:107EB0006FC0863521F484E090D080E0DECF843638
:107EC00009F040C070D06FD0082F6DD080E0C81688
:107ED00080E7D80618F4F601B7BEE895C0E0D1E017
:107EE00062D089930C17E1F7F0E0CF16F0E7DF06D8
:107EF00018F0F601B7BEE89568D007B600FCFDCFD4
:107F0000A601A0E0B1E02C9130E011968C91119780
:107F100090E0982F8827822B932B1296FA010C0160
:107F200087BEE89511244E5F5F4FF1E0A038BF0790
:107F300051F7F601A7BEE89507B600FCFDCF97BE46
:107F4000E89526C08437B1F42ED02DD0F82E2BD052
:107F50003CD0F601EF2C8F010F5F1F4F84911BD097
:107F6000EA94F801C1F70894C11CD11CFA94CF0C13
:107F7000D11C0EC0853739F428D08EE10CD085E9AC
:107F80000AD08FE07ACF813511F488E018D01DD067
:107F900080E101D065CF982F8091C00085FFFCCF94
:107FA0009093C60008958091C00087FFFCCF809118
:107FB000C00084FD01C0A8958091C6000895E0E648
:107FC000F0E098E1908380830895EDDF803219F02E
:107FD00088E0F5DFFFCF84E1DECF1F93182FE3DFCA
:107FE0001150E9F7F2DF1F91089580E0E8DFEE27F6
:047FF000FF270994CA
:027FFE00040479
:00000001FF
