:020000040000FA
:100000000C9462000C948A000C948A000C948A0070
:100010000C948A000C948A000C948A000C948A0038
:100020000C948A000C948A000C948A000C948A0028
:100030000C948A000C948A000C948A000C948A0018
:100040000C94F3020C948A000C9463030C943D030B
:100050000C948A000C948A000C948A000C948A00F8
:100060000C948A000C948A000000000024002700F1
:100070002A0000000000250028002B0000000000DE
:1000800023002600290004040404040404040202DA
:100090000202020203030303030301020408102007
:1000A0004080010204081020010204081020000012
:1000B0000008000201000003040700000000000027
:1000C0000000950311241FBECFEFD8E0DEBFCDBFE7
:1000D00021E0A6E3B1E001C01D92A23EB207E1F724
:1000E00011E0A0E0B1E0E6EDFAE002C005900D926B
:1000F000A633B107D9F710E0C2E6D0E004C02197DB
:10010000FE010E946305C136D107C9F70E94DB03D7
:100110000C9469050C940000833081F028F4813040
:1001200099F08230A9F008958730A9F08830C9F09D
:100130008430B1F4809180008F7D03C08091800075
:100140008F7780938000089584B58F7784BD08955C
:1001500084B58F7DFBCF8091B0008F778093B00006
:1001600008958091B0008F7DF9CFCF93DF93282F32
:1001700030E0F901E255FF4F8491F901E656FF4F57
:10018000D491F901EA57FF4FC491CC23A1F081111A
:100190000E948C00EC2FF0E0EE0FFF1FE458FF4FA1
:1001A000A591B491EC91ED2381E090E009F480E019
:1001B000DF91CF91089580E090E0FACF1F93CF9325
:1001C000DF93282F30E0F901E255FF4F8491F901C8
:1001D000E656FF4FD491F901EA57FF4FC491CC2363
:1001E000A9F0162F81110E948C00EC2FF0E0EE0F89
:1001F000FF1FEE58FF4FA591B4918FB7F894EC9183
:10020000111108C0D095DE23DC938FBFDF91CF9111
:100210001F910895DE2BF8CFCF93DF9390E0FC0180
:10022000E656FF4F24918A579F4FFC018491882303
:10023000D1F090E0880F991FFC01E859FF4FA5917C
:10024000B491FC01EE58FF4FC591D49161110EC0DD
:100250009FB7F8948C91E22FE0958E238C932881A0
:10026000E223E8839FBFDF91CF9108958FB7F89481
:10027000EC91E22BEC938FBFF6CF3FB7F8948091CF
:100280003B0190913C01A0913D01B0913E0126B50A
:10029000A89B05C02F3F19F00196A11DB11D3FBFBE
:1002A000BA2FA92F982F8827BC01CD01620F711D8D
:1002B000811D911D42E0660F771F881F991F4A9587
:1002C000D1F708958F929F92AF92BF92CF92DF9213
:1002D000EF92FF926B017C010E943D014B015C019A
:1002E000C114D104E104F104B9F00E943D01681980
:1002F00079098A099B09683E73408105910580F35D
:1003000021E0C21AD108E108F10888EE880E83E0E6
:10031000981EA11CB11CE4CFFF90EF90DF90CF900E
:10032000BF90AF909F908F900895AF92BF92CF9261
:10033000DF92EF92FF920F931F93CF93DF936C01A5
:100340007B018B01040F151FEB015E01AE18BF0886
:10035000C017D10759F06991D601ED91FC91019038
:10036000F081E02DC6010995892B79F7C501DF9150
:10037000CF911F910F91FF90EF90DF90CF90BF90A2
:10038000AF900895FC01538D448D252F30E0842FCC
:1003900090E0821B930B541710F0CF9608950197AD
:1003A0000895FC01918D828D981761F0A28DAE0F9A
:1003B000BF2FB11D5D968C91928D9F5F9F73928F21
:1003C00090E008958FEF9FEF0895FC01918D828D4D
:1003D000981731F0828DE80FF11D858D90E008951A
:1003E0008FEF9FEF0895FC01918D228D892F90E072
:1003F000805C9F4F821B91098F73992708958FE32B
:1004000091E00E94F30121E0892B09F420E0822F82
:10041000089580E090E0892B29F00E94FF0181116E
:100420000C9400000895FC01A48DA80FB92FB11DF4
:10043000A35ABF4F2C91848D90E001968F7399271A
:10044000848FA689B7892C93A089B1898C918370F8
:1004500080648C93938D848D981306C00288F389F1
:10046000E02D80818F7D80830895EF92FF920F931E
:100470001F93CF93DF93EC0181E0888F9B8D8C8D50
:1004800098131AC0E889F989808185FF15C09FB744
:10049000F894EE89FF896083E889F9898081837007
:1004A000806480839FBF81E090E0DF91CF911F91B6
:1004B0000F91FF90EF900895F62E0B8D10E00F5FD7
:1004C0001F4F0F731127E02E8C8D8E110CC00FB6AD
:1004D00007FCFACFE889F989808185FFF5CFCE0145
:1004E0000E941302F1CFEB8DEC0FFD2FF11DE35AAB
:1004F000FF4FF0829FB7F8940B8FEA89FB898081C8
:100500008062CFCFCF93DF93EC01888D8823B9F041
:10051000AA89BB89E889F9898C9185FD03C080810E
:1005200086FD0DC00FB607FCF7CF8C9185FFF2CF8B
:10053000808185FFEDCFCE010E941302E9CFDF91CC
:10054000CF910895FC0101900020E9F73197AF01A8
:10055000481B590BBC018FE391E00C9495018F92DD
:100560009F92AF92BF920F931F93CF93DF93CDB71C
:10057000DEB7A1970FB6F894DEBF0FBECDBF19A2AC
:10058000423008F44AE08E010F5D1F4F842E912CFB
:10059000B12CA12CA50194010E944105E62FB901BF
:1005A000CA01EA30F4F4E05DD801EE938D01232B0B
:1005B000242B252B79F790E080E0109719F0CD01DE
:1005C0000E94A202A1960FB6F894DEBF0FBECDBF67
:1005D000DF91CF911F910F91BF90AF909F908F901F
:1005E0000895E95CE1CF1F920F920FB60F9211248C
:1005F0002F933F938F939F93AF93BF938091370136
:1006000090913801A0913901B0913A0130913601B1
:1006100023E0230F2D3758F50196A11DB11D20931E
:1006200036018093370190933801A0933901B0933C
:100630003A0180913B0190913C01A0913D01B09124
:100640003E010196A11DB11D80933B0190933C0199
:10065000A0933D01B0933E01BF91AF919F918F91C7
:100660003F912F910F900FBE0F901F90189526E885
:10067000230F0296A11DB11DD2CF1F920F920FB66C
:100680000F9211242F933F934F935F936F937F9318
:100690008F939F93AF93BF93EF93FF938FE391E07B
:1006A0000E941302FF91EF91BF91AF919F918F91A3
:1006B0007F916F915F914F913F912F910F900FBE5E
:1006C0000F901F9018951F920F920FB60F92112442
:1006D0002F938F939F93EF93FF93E0914F01F091AE
:1006E00050018081E0915501F091560182FD1BC0BF
:1006F0009081809158018F5F8F73209159018217EB
:1007000041F0E0915801F0E0E15CFE4F958F80935D
:100710005801FF91EF919F918F912F910F900FBEF4
:100720000F901F9018958081F4CFCF93DF93EFE364
:10073000F1E01382128288EE93E0A0E0B0E08483BF
:100740009583A683B78384E091E09183808385ECD1
:1007500090E09587848784EC90E09787868780EC8B
:1007600090E0918B808B81EC90E0938B828B82EC7C
:1007700090E0958B848B86EC90E0978B868B118E26
:10078000128E138E148ECCEDD1E082E090E099832E
:10079000888384EF91E0A0E0B0E08A839B83AC8300
:1007A000BD8361E082E00E940C0161E08881DF91FD
:1007B000CF910C94DE00CF93DF9300D000D01F9236
:1007C000CDB7DEB7789484B5826084BD84B581608E
:1007D00084BD85B5826085BD85B5816085BD80910C
:1007E0006E00816080936E00109281008091810084
:1007F000826080938100809181008160809381007C
:10080000809180008160809380008091B10084603D
:100810008093B1008091B00081608093B00080919E
:100820007A00846080937A0080917A00826080935D
:100830007A0080917A00816080937A0080917A00BA
:10084000806880937A001092C100E0914F01F0918E
:10085000500182E08083E0914B01F0914C011082C5
:10086000E0914D01F0914E018FEC80831092570181
:10087000E0915301F091540186E08083E0915101B1
:10088000F0915201808180618083E0915101F0916B
:100890005201808188608083E0915101F091520182
:1008A000808180688083E0915101F09152018081C4
:1008B0008F7D808384E690E0A0E0B0E08093DE014D
:1008C0009093DF01A093E001B093E1018BE3C82E88
:1008D000DD24D3943E0126E0620E711C93E7A92E1D
:1008E000B12C20E0822E20E0922E6091DE017091EA
:1008F000DF018091E0019091E1010E94620161E0DD
:100900008091DC010E940C0160E08091DC010E947A
:10091000DE0062E170E080E090E00E94620161E050
:100920008091DC010E94DE008BE990E00197F1F7F5
:1009300060E08091DC010E940C018FB7F894209058
:100940003701309038014090390150903A018FBF03
:100950008091DC010E94B500019701F52FB7F89452
:100960008091370190913801A0913901B0913A01FD
:100970002FBF82199309A409B509893E9340A105A7
:10098000B10530F38114910409F4AFCF0E94FF0147
:10099000882309F4AACF0E940000A7CF8091DC0130
:1009A0000E94B500892B71F7C6010197F1F780917C
:1009B000DC010E94B500019729F7C6010197F1F704
:1009C000CE0101967C0107E010E0512C8091DC0102
:1009D0000E94B500892BD1F3C5010197F1F78091F1
:1009E000DC010E94B5008130910531F4002E01C078
:1009F000880F0A94EAF7582A8091DC010E94B5001A
:100A00000197D1F30150110908F7F70151927F01C5
:100A1000FDEF5F1609F4B6CFE614F704A1F61981CD
:100A20000B814D818A81810F9927991F9C01200F8D
:100A3000311D8C81820F932F911D9927481719061C
:100A400009F0A0CF82E191E00E94A202602F70E045
:100A500090E080E04AE00E94AF0280E291E00E94D4
:100A6000A202612F70E090E080E04AE00E94AF02B5
:100A700080E391E00E94A20283E391E00E94A2023F
:100A800081CFA1E21A2EAA1BBB1BFD010DC0AA1F1C
:100A9000BB1FEE1FFF1FA217B307E407F50720F0E7
:100AA000A21BB30BE40BF50B661F771F881F991F62
:100AB0001A9469F760957095809590959B01AC01AB
:100AC000BD01CF010895EE0FFF1F0590F491E02DB9
:100AD0000994F894FFCF0000000035029501C2018F
:100AE0008202F301D101E50154656D706572617494
:100AF0007572653A200020C2B0430948756D69647B
:0C0B00006974793A20002025000D0A00DD
:107E0000112484B714BE81FFF0D085E080938100F7
:107E100082E08093C00088E18093C10086E0809377
:107E2000C20080E18093C4008EE0C9D0259A86E02C
:107E300020E33CEF91E0309385002093840096BBD3
:107E4000B09BFECF1D9AA8958150A9F7CC24DD24C4
:107E500088248394B5E0AB2EA1E19A2EF3E0BF2EE7
:107E6000A2D0813461F49FD0082FAFD0023811F036
:107E7000013811F484E001C083E08DD089C08234E0
:107E800011F484E103C0853419F485E0A6D080C0E4
:107E9000853579F488D0E82EFF2485D0082F10E0AE
:107EA000102F00270E291F29000F111F8ED06801E7
:107EB0006FC0863521F484E090D080E0DECF843638
:107EC00009F040C070D06FD0082F6DD080E0C81688
:107ED00080E7D80618F4F601B7BEE895C0E0D1E017
:107EE00062D089930C17E1F7F0E0CF16F0E7DF06D8
:107EF00018F0F601B7BEE89568D007B600FCFDCFD4
:107F0000A601A0E0B1E02C9130E011968C91119780
:107F100090E0982F8827822B932B1296FA010C0160
:107F200087BEE89511244E5F5F4FF1E0A038BF0790
:107F300051F7F601A7BEE89507B600FCFDCF97BE46
:107F4000E89526C08437B1F42ED02DD0F82E2BD052
:107F50003CD0F601EF2C8F010F5F1F4F84911BD097
:107F6000EA94F801C1F70894C11CD11CFA94CF0C13
:107F7000D11C0EC0853739F428D08EE10CD085E9AC
:107F80000AD08FE07ACF813511F488E018D01DD067
:107F900080E101D065CF982F8091C00085FFFCCF94
:107FA0009093C60008958091C00087FFFCCF809118
:107FB000C00084FD01C0A8958091C6000895E0E648
:107FC000F0E098E1908380830895EDDF803219F02E
:107FD00088E0F5DFFFCF84E1DECF1F93182FE3DFCA
:107FE0001150E9F7F2DF1F91089580E0E8DFEE27F6
:047FF000FF270994CA
:027FFE00040479
:00000001FF
